:100000000C9434000C9446000C9446000C9446006A
:100010000C9446000C9446000C9446000C94460048
:100020000C9446000C9446000C9446000C94460038
:100030000C9446000C9446000C9446000C94460028
:100040000C9448000C9446000C9446000C94460016
:100050000C9446000C9446000C9446000C94460008
:100060000C9446000C94460011241FBECFEFD8E03C
:10007000DEBFCDBF21E0A0E0B1E001C01D92A532FE
:10008000B207E1F70E94B9000C944C010C940000F7
:100090001F920F920FB60F9211242F933F934F93FD
:1000A0005F936F938F939F93AF93BF93EF93FF9360
:1000B000809100018F5F80930001811120C023E1B6
:1000C00031E041E051E080E090E0FA01E80FF91FF3
:1000D000D901A80FB91F6C916083019686309105F4
:1000E000A1F72A5F3F4F4A5F5F4F81E02532380713
:1000F00051F75A9845985B9844985C98439890912A
:10010000000180910101981301C05A9A9091000159
:1001100080910201981301C0459A9091000180914D
:100120000701981301C05B9A90910001809108012A
:10013000981301C0449A9091000180910D01981389
:1001400001C05C9A9091000180910E01981301C04A
:10015000439AFF91EF91BF91AF919F918F916F91D2
:100160005F914F913F912F910F900FBE0F901F9075
:100170001895529A539A549A3D9A3C9A3B9A85B54F
:10018000816085BD80916E00816080936E0078945F
:1001900023E131E041E051E080E090E0F901E80F37
:1001A000F91F1082FA01E80FF91F108201968630BC
:1001B0009105A1F72A5F3F4F4A5F5F4F81E02532EB
:1001C000380751F781E0813069F4909119019F3F20
:1001D00059F09F5F90931901909114019F5F909344
:1001E000140153C0823071F480911301882361F0AF
:1001F00081508093130180911401815080931401E8
:1002000082E043C0833099F480911F018F3F29F42D
:1002100080911901811114C00EC08F5F80931F015E
:1002200080911A018F5F80931A0183E02EC0843081
:1002300079F3853079F4809113018F3F99F40CC0E4
:1002400081508093190180911A01815080931A0185
:1002500084E01BC08630C9F480911F0181110CC05D
:1002600081E013C08F5F80931301809120018F5F25
:100270008093200185E009C0815080931F01809107
:10028000200181508093200186E0EFE3FFE1319768
:0C029000F1F700C0000097CFF894FFCFFA
:00000001FF
