:100000000C9434000C9446000C9446000C9446006A
:100010000C9446000C9446000C9446000C94460048
:100020000C9446000C9446000C9446000C94460038
:100030000C9446000C9446000C9446000C94460028
:100040000C9463000C9446000C9446000C944600FB
:100050000C9446000C9446000C9446000C94460008
:100060000C9446000C94460011241FBECFEFD8E03C
:10007000DEBFCDBF21E0A0E0B1E001C01D92A532FE
:10008000B207E1F70E948E010C94B8010C940000B5
:10009000529A3D9A259A259A259A259A539A3C9ADE
:1000A000259A259A259A259A549A3B9A259A259A13
:1000B000259A259A85B5816085BDEEE6F0E08081C0
:1000C0008160808308951F920F920FB60F921124C2
:1000D0002F933F934F935F936F938F939F93AF9320
:1000E000BF93EF93FF9380910001811184C023E1BE
:1000F00031E041E051E080E090E0FA01E80FF91FC3
:10010000D901A80FB91F6C916083019686309105C3
:10011000A1F72A5F3F4F4A5F5F4F81E025323807E2
:1001200051F78091010181115A98909100018091BD
:100130000201981345989091000180910301981352
:100140002D98909100018091040198132D98909121
:1001500000018091050198132D98909100018091E4
:10016000060198132D989091000180910701981332
:100170005B989091000180910801981344989091A8
:1001800000018091090198132D98909100018091B0
:100190000A0198132D989091000180910B019813FA
:1001A0002D989091000180910C0198132D989091B9
:1001B000000180910D0198135C989091000180914D
:1001C0000E01981343989091000180910F019813AC
:1001D0002D98909100018091100198132D98909185
:1001E00000018091110198132D9890910001809148
:1001F000120198132D98909100018091010198139C
:1002000001C05A9A9091000180910201981301C097
:10021000459A9091000180910301981301C02D9A95
:100220009091000180910401981301C02D9A909142
:10023000000180910501981301C02D9A9091000151
:1002400080910601981301C02D9A90910001809130
:100250000701981301C05B9A9091000180910801F9
:10026000981301C0449A909100018091090198135C
:1002700001C02D9A9091000180910A01981301C04C
:100280002D9A9091000180910B01981301C02D9A35
:100290009091000180910C01981301C02D9A9091CA
:1002A000000180910D01981301C05C9A90910001AA
:1002B00080910E01981301C0439A909100018091A2
:1002C0000F01981301C02D9A9091000180911001A7
:1002D000981301C02D9A90910001809111019813FB
:1002E00001C02D9A9091000180911201981301C0D4
:1002F0002D9A809100018F5F80930001FF91EF9113
:10030000BF91AF919F918F916F915F914F913F916D
:100310002F910F900FBE0F901F9018950E944800CC
:10032000789481E0809313011092190110921F01BB
:100330008FEF8093150180931B018093210180939F
:10034000160180931C0180932201809317018093F2
:100350001D01809323018093180180931E018093D7
:1003600024018FE39CE90197F1F700C00000F9CF69
:04037000F894FFCF2F
:00000001FF
