:100000000C9434000C9446000C9446000C9446006A
:100010000C9446000C9446000C9446000C94460048
:100020000C9446000C9446000C9446000C94460038
:100030000C9446000C9446000C9446000C94460028
:100040000C94AF000C9446000C9464020C9484024F
:100050000C9446000C9446000C9446000C94460008
:100060000C9446000C94460011241FBECFEFD8E03C
:10007000DEBFCDBF22E0A0E0B1E001C01D92AE34F2
:10008000B207E1F70E94AE020C94B6020C94000095
:10009000529A3D9A259A259A259A259A539A3C9ADE
:1000A000259A259A259A259A549A3B9A259A259A13
:1000B000259A259A08951092C50089E18093C4007D
:1000C000E0ECF0E080818D7F8083E1ECF0E08081E6
:1000D0008869808310928401109285011092020138
:1000E0001092030108950E94480085B5826085BD85
:1000F000EEE6F0E08081816080830E945B000895DD
:1001000090918501809184019817D1F3E091840149
:10011000EF5FEF77E0938401F0E0EA57FE4F8081D4
:100120000895909103019F5F9F772091020192179C
:10013000E1F3E92FF0E0EC5FFE4F80839093030141
:100140008091C10080628093C10008952091850153
:100150009091840181E0291301C080E008951F92ED
:100160000F920FB60F9211242F933F934F935F93EB
:100170006F937F938F939F93AF93CF93DF93EF937F
:10018000FF93789480910001909101018F3F9340FB
:1001900009F0ABC08FEF9FEF9093010180930001B6
:1001A00046E052E020E030E0A6E080E090E0A29F50
:1001B000B001A39F700D1124FB01E80FF91FEE0F92
:1001C000FF1FE65DFD4FC081D181FC01EE0FFF1FD7
:1001D000E40FF51FD183C08301968630910561F746
:1001E0002F5F3F4F445F5F4F23303105F1F6809121
:1001F000060290910702892B09F05A988091120209
:1002000090911302892B09F05B9880911E029091C6
:100210001F02892B09F05C988091080290910902D5
:10022000892B09F045988091140290911502892B31
:1002300009F044988091200290912102892B09F0C5
:10024000439880910A0290910B02892B09F02D9816
:100250008091160290911702892B09F02D988091B8
:10026000220290912302892B09F02D9880910C0293
:1002700090910D02892B09F02D9880911802909190
:100280001902892B09F02D98809124029091250262
:10029000892B09F02D9880910E0290910F02892BE5
:1002A00009F02D9880911A0290911B02892B09F078
:1002B0002D988091260290912702892B09F02D9884
:1002C0008091100290911102892B09F02D98809154
:1002D0001C0290911D02892B09F02D988091280213
:1002E00090912902892B09F02D988091000190911D
:1002F0000101019690930101809300012091060273
:10030000309107022817390709F45A9A20911202EE
:100310003091130280910001909101012817390753
:1003200009F45B9A20911E0230911F028091000116
:10033000909101012817390709F45C9A209108026D
:10034000309109028091000190910101281739072D
:1003500009F4459A20911402309115028091000110
:10036000909101012817390709F4449A209120023D
:1003700030912102809100019091010128173907E5
:1003800009F4439A20910A0230910B0280910001F6
:10039000909101012817390709F42D9A209116022E
:1003A00030911702809100019091010128173907BF
:1003B00009F42D9A209122023091230280910001AC
:1003C000909101012817390709F42D9A20910C0208
:1003D00030910D0280910001909101012817390799
:1003E00009F42D9A20911802309119028091000190
:1003F000909101012817390709F42D9A20912402C0
:100400003091250280910001909101012817390750
:1004100009F42D9A20910E0230910F028091000173
:10042000909101012817390709F42D9A20911A0299
:1004300030911B028091000190910101281739072A
:1004400009F42D9A20912602309127028091000113
:10045000909101012817390709F42D9A2091100273
:100460003091110280910001909101012817390704
:1004700009F42D9A20911C0230911D0280910001F7
:10048000909101012817390709F42D9A209128022B
:1004900030912902809100019091010128173907BC
:1004A00009F42D9AFF91EF91DF91CF91AF919F9138
:1004B0008F917F916F915F914F913F912F910F900D
:1004C0000FBE0F901F9018951F920F920FB60F92AC
:1004D00011248F939F93EF93FF938091C600E09137
:1004E0008501EF5FEF77E093850190918401F0E063
:1004F000EA57FE4F8083FF91EF919F918F910F906C
:100500000FBE0F901F9018951F920F920FB60F926B
:1005100011248F939F93EF93FF9390910301809108
:100520000201981769F0E0910201EF5FEF77E09325
:100530000201F0E0EC5FFE4F80818093C60005C0B1
:100540008091C1008F7D8093C100FF91EF919F91B9
:100550008F910F900FBE0F901F9018950E947300FF
:1005600078940E9480000E949100FBCFF894FFCF06
:00000001FF
