:100000000C9434000C9446000C9446000C9446006A
:100010000C9446000C9446000C9446000C94460048
:100020000C9446000C9446000C9446000C94460038
:100030000C9446000C9446000C9446000C94460028
:100040000C94AF000C9446000C9467020C94870249
:100050000C9446000C9446000C9446000C94460008
:100060000C9446000C94460011241FBECFEFD8E03C
:10007000DEBFCDBF22E0A0E0B1E001C01D92AE34F2
:10008000B207E1F70E94B1020C94BF020C94000089
:10009000529A3D9A269A269A269A269A539A3C9ADA
:1000A000269A269A269A269A549A3B9A269A269A0D
:1000B000269A269A08951092C50089E18093C4007B
:1000C000E0ECF0E080818D7F8083E1ECF0E08081E6
:1000D0008869808310928401109285011092020138
:1000E0001092030108950E94480085B5826085BD85
:1000F000EEE6F0E08081816080830E945B000895DD
:1001000090918501809184019817D1F3E091840149
:10011000EF5FEF77E0938401F0E0EA57FE4F8081D4
:100120000895909103019F5F9F772091020192179C
:10013000E1F3E92FF0E0EC5FFE4F80839093030141
:100140008091C10080628093C10008952091850153
:100150009091840181E0291301C080E008951F92ED
:100160000F920FB60F9211242F933F934F935F93EB
:100170006F937F938F939F93AF93CF93DF93EF937F
:10018000FF932D9A88EC86BD80910001909101012A
:100190009C012F5F3F4F30930101209300018F3F5F
:1001A000914009F0A9C0109201011092000146E0AF
:1001B00052E020E030E0A6E080E090E0A29FB001B5
:1001C000A39F700D1124FB01E80FF91FEE0FFF1F15
:1001D000E65DFD4FC081D181FC01EE0FFF1FE40FF2
:1001E000F51FD183C08301968630910561F72F5F9B
:1001F0003F4F445F5F4F23303105F1F68091060297
:1002000090910702892B09F05A98809112029091DF
:100210001302892B09F05B9880911E0290911F02B6
:10022000892B09F05C988091080290910902892B32
:1002300009F045988091140290911502892B09F0DC
:1002400044988091200290912102892B09F04398D3
:1002500080910A0290910B02892B09F02E988091CF
:10026000160290911702892B09F02E988091220294
:1002700090912302892B09F02E9880910C02909185
:100280000D02892B09F02E98809118029091190285
:10029000892B09F02E988091240290912502892BB8
:1002A00009F02E9880910E0290910F02892B09F08F
:1002B0002E9880911A0290911B02892B09F02E989A
:1002C0008091260290912702892B09F02E98809127
:1002D000100290911102892B09F02E9880911C0236
:1002E00090911D02892B09F02E98809128029091FF
:1002F0002902892B09F02E9880910001909101012B
:1003000020910602309107022817390709F45A9AFA
:10031000809100019091010120911202309113020D
:100320002817390709F45B9A809100019091010127
:1003300020911E0230911F022817390709F45C9A98
:1003400080910001909101012091080230910902F1
:100350002817390709F4459A80910001909101010D
:1003600020911402309115022817390709F4449A94
:100370008091000190910101209120023091210291
:100380002817390709F4439A8091000190910101DF
:1003900020910A0230910B022817390709F42E9A8E
:1003A0008091000190910101209116023091170275
:1003B0002817390709F42E9A8091000190910101C4
:1003C00020912202309123022817390709F42E9A2E
:1003D000809100019091010120910C0230910D0259
:1003E0002817390709F42E9A809100019091010194
:1003F00020911802309119022817390709F42E9A12
:1004000080910001909101012091240230912502F8
:100410002817390709F42E9A809100019091010163
:1004200020910E0230910F022817390709F42E9AF5
:10043000809100019091010120911A0230911B02DC
:100440002817390709F42E9A809100019091010133
:1004500020912602309127022817390709F42E9A95
:1004600080910001909101012091100230911102C0
:100470002817390709F42E9A809100019091010103
:1004800020911C0230911D022817390709F42E9A79
:100490008091000190910101209128023091290260
:1004A0002817390709F42E9A2D98FF91EF91DF91C3
:1004B000CF91AF919F918F917F916F915F914F916C
:1004C0003F912F910F900FBE0F901F9018951F9284
:1004D0000F920FB60F9211248F939F93EF93FF9378
:1004E0008091C600E0918501EF5FEF77E093850191
:1004F00090918401F0E0EA57FE4F8083FF91EF91E5
:100500009F918F910F900FBE0F901F9018951F9283
:100510000F920FB60F9211248F939F93EF93FF9337
:100520009091030180910201981769F0E091020116
:10053000EF5FEF77E0930201F0E0EC5FFE4F808128
:100540008093C60005C08091C1008F7D8093C1005B
:10055000FF91EF919F918F910F900FBE0F901F9081
:1005600018950E9473007894259A8FEF90E09093ED
:100570002D0280932C0281E40E949100FFCFF89419
:02058000FFCFAB
:00000001FF
