:100000000C9434000C9446000C9446000C9446006A
:100010000C9446000C9446000C9446000C94460048
:100020000C9446000C9446000C9446000C94460038
:100030000C9446000C9446000C9446000C94460028
:100040000C94C8000C9446000C947E020C949E0202
:100050000C9446000C9446000C9446000C94460008
:100060000C9446000C94460011241FBECFEFD8E03C
:10007000DEBFCDBF22E0A0E0B1E001C01D92AE34F2
:10008000B207E1F70E94C8020C943C030C940000F4
:10009000539A569A219A239A399A3C9A549A579A83
:1000A000229A259A3A9A3D9A529A559A209A249AD7
:1000B000389A3B9A08951092C50089E18093C40054
:1000C000E0ECF0E080818D7F8083E1ECF0E08081E6
:1000D0008869808310928401109285011092020138
:1000E0001092030108950E94480085B5826085BD85
:1000F000EEE6F0E08081816080830E945B000895DD
:1001000090918501809184019817D1F3E091840149
:10011000EF5FEF77E0938401F0E0EA57FE4F8081D4
:100120000895909103019F5F9F772091020192179C
:10013000E1F3E92FF0E0EC5FFE4F80839093030141
:100140008091C10080628093C10008952091850153
:100150009091840181E0291301C080E00895982FD7
:1001600080ED890F8A3070F08FE9890F863010F4A6
:1001700089EA05C08FEB890F863018F489EC890F66
:10018000089580E0089580538A3008F080E0089553
:100190001F920F920FB60F9211242F933F934F93FC
:1001A0005F936F937F938F939F93AF93CF93DF93DF
:1001B000EF93FF9388EC86BD80910001909101013F
:1001C0009C012F5F3F4F30930101209300018F3F2F
:1001D000914009F0A9C0109201011092000146E07F
:1001E00052E020E030E0A6E080E090E0A29FB00185
:1001F000A39F700D1124FB01E80FF91FEE0FFF1FE5
:10020000E65DFD4FC081D181FC01EE0FFF1FE40FC1
:10021000F51FD183C08301968630910561F72F5F6A
:100220003F4F445F5F4F23303105F1F68091060266
:1002300090910702892B09F05B9A809112029091AC
:100240001302892B09F05C9A80911E0290911F0283
:10025000892B09F05A9A8091080290910902892B02
:1002600009F05E9A8091140290911502892B09F091
:100270005F9A8091200290912102892B09F05D9A6A
:1002800080910A0290910B02892B09F0299A8091A2
:10029000160290911702892B09F02A9A8091220266
:1002A00090912302892B09F0289A80910C02909159
:1002B0000D02892B09F02B9A809118029091190256
:1002C000892B09F02D9A8091240290912502892B87
:1002D00009F02C9A80910E0290910F02892B09F05F
:1002E000419A80911A0290911B02892B09F0429A3F
:1002F0008091260290912702892B09F0409A8091E3
:10030000100290911102892B09F0449A80911C02ED
:1003100090911D02892B09F0459A809128029091B5
:100320002902892B09F0439A8091000190910101E3
:1003300020910602309107022817390709F45B98CB
:1003400080910001909101012091120230911302DD
:100350002817390709F45C988091000190910101F8
:1003600020911E0230911F022817390709F45A986C
:1003700080910001909101012091080230910902C1
:100380002817390709F45E988091000190910101C6
:1003900020911402309115022817390709F45F984B
:1003A0008091000190910101209120023091210261
:1003B0002817390709F45D98809100019091010197
:1003C00020910A0230910B022817390709F4299865
:1003D0008091000190910101209116023091170245
:1003E0002817390709F42A9880910001909101019A
:1003F00020912202309123022817390709F4289806
:10040000809100019091010120910C0230910D0228
:100410002817390709F42B98809100019091010168
:1004200020911802309119022817390709F42D98E4
:1004300080910001909101012091240230912502C8
:100440002817390709F42C98809100019091010137
:1004500020910E0230910F022817390709F44198B4
:10046000809100019091010120911A0230911B02AC
:100470002817390709F442988091000190910101F1
:1004800020912602309127022817390709F4409855
:100490008091000190910101209110023091110290
:1004A0002817390709F444988091000190910101BF
:1004B00020911C0230911D022817390709F4459834
:1004C0008091000190910101209128023091290230
:1004D0002817390709F44398FF91EF91DF91CF91E5
:1004E000AF919F918F917F916F915F914F913F91CC
:1004F0002F910F900FBE0F901F9018951F920F9283
:100500000FB60F9211248F939F93EF93FF938091D7
:10051000C600E0918501EF5FEF77E0938501909150
:100520008401F0E0EA57FE4F8083FF91EF919F91A5
:100530008F910F900FBE0F901F9018951F920F92E2
:100540000FB60F9211248F939F93EF93FF93909187
:10055000030180910201981769F0E0910201EF5FB9
:10056000EF77E0930201F0E0EC5FFE4F8081809333
:10057000C60005C08091C1008F7D8093C100FF91AE
:10058000EF919F918F910F900FBE0F901F90189534
:10059000CF93DF93CDB7DEB72A970FB6F894DEBFBF
:1005A0000FBECDBF0E94730078948E010F5F1F4F66
:1005B00079E0F72EF00E0E94A6008823E1F30E9456
:1005C00080008332C1F70E948000833561F084355A
:1005D00091F783E20E9491008FE40E9491008BE4E6
:1005E0000E949100E8CF0E94800090ED980F9A3011
:1005F00008F090E068019A870E9480000E94AF0096
:10060000F60181936F019A85FE12F5CF892F90E054
:1006100049812A81F0E12F9F90011124342B4B81D5
:10062000242B3170FC01EE0FFF1FE65DFD4F31837F
:1006300020834C812D8150E1259F90011124342B82
:100640004E81242B3170FC01EE0FFF1FEA5CFD4F41
:10065000318320834F812885E0E12E9F9001112472
:10066000342B4985242B3170880F991FFC01EE5BD8
:0C067000FD4F318320839FCFF894FFCF13
:00000001FF
