:100000000C9434000C9446000C9446000C9446006A
:100010000C9446000C9446000C9446000C94460048
:100020000C9446000C9446000C9446000C94460038
:100030000C9446000C9446000C9446000C94460028
:100040000C9448000C9446000C9446000C94460016
:100050000C9446000C9446000C9446000C94460008
:100060000C9446000C94460011241FBECFEFD8E03C
:10007000DEBFCDBF21E0A0E0B1E001C01D92A532FE
:10008000B207E1F70E94B9000C943D010C94000006
:100090001F920F920FB60F9211242F933F934F93FD
:1000A0005F936F938F939F93AF93BF93EF93FF9360
:1000B00080910001811120C023E131E041E051E055
:1000C00080E090E0FA01E80FF91FD901A80FB91FED
:1000D0006C916083019686309105A1F72A5F3F4FAE
:1000E0004A5F5F4F81E02532380751F75A984598AB
:1000F0005B9844985C984398809100018F5F80934F
:10010000000190910101891301C05A9A9091000158
:1001100080910201981301C0459A9091000180914D
:100120000701981301C05B9A90910001809108012A
:10013000981301C0449A9091000180910D01981389
:1001400001C05C9A9091000180910E01981301C04A
:10015000439AFF91EF91BF91AF919F918F916F91D2
:100160005F914F913F912F910F900FBE0F901F9075
:100170001895529A539A549A3D9A3C9A3B9A85B54F
:10018000816085BD80916E00816080936E0078945F
:1001900023E131E041E051E080E090E0F901E80F37
:1001A000F91F1082FA01E80FF91F108201968630BC
:1001B0009105A1F72A5F3F4F4A5F5F4F81E02532EB
:1001C000380751F781E0813051F4909119019F3F38
:1001D00041F09F5F909319019093140144C08230C5
:1001E00059F480911301882349F0815080931301C1
:1001F0008093140182E037C0833081F480911F0125
:100200008F3F29F480911901811111C00BC08F5FBC
:1002100080931F0180931A0183E025C0843091F3FD
:10022000853061F4809113018F3F81F409C08150C2
:100230008093190180931A0184E015C0863099F4E7
:1002400080911F01811109C081E00DC08F5F8093F3
:1002500013018093200185E006C0815080931F0127
:100260008093200186E09FEF20E732E0915020400C
:0E0270003040E1F700C00000A6CFF894FFCFA9
:00000001FF
