:100000000C9434000C9446000C9446000C9446006A
:100010000C9446000C9446000C9446000C94460048
:100020000C9446000C9446000C9446000C94460038
:100030000C9446000C9446000C9446000C94460028
:100040000C9463000C9446000C9446000C944600FB
:100050000C9446000C9446000C9446000C94460008
:100060000C9446000C94460011241FBECFEFD8E03C
:10007000DEBFCDBF21E0A0E0B1E001C01D92A532FE
:10008000B207E1F70E946A010C94B4010C940000DD
:10009000529A3D9A259A259A259A259A539A3C9ADE
:1000A000259A259A259A259A549A3B9A259A259A13
:1000B000259A259A85B5816085BDEEE6F0E08081C0
:1000C0008160808308951F920F920FB60F921124C2
:1000D0002F933F934F935F936F938F939F93AF9320
:1000E000BF93EF93FF93809100018F5F8093000196
:1000F000811162C023E131E041E051E080E090E015
:10010000FA01E80FF91FD901A80FB91F6C9160839C
:10011000019686309105A1F72A5F3F4F4A5F5F4FF6
:1001200081E02532380751F78091010181115A98F9
:100130008091070181115B9880910D0181115C987C
:1001400080910201811145988091080181114498A4
:1001500080910E01811143988091030181112D98A6
:100160008091090181112D9880910F0181112D98A5
:100170008091040181112D9880910A0181112D989F
:100180008091100181112D988091050181112D9888
:1001900080910B0181112D988091110181112D9871
:1001A0008091060181112D9880910C0181112D986B
:1001B0008091120181112D9890910101809100018F
:1001C000981301C05A9A90910701809100019813E9
:1001D00001C05B9A90910D0180910001981301C0BC
:1001E0005C9A9091020180910001981301C0459A98
:1001F0009091080180910001981301C0449A909158
:100200000E0180910001981301C0439A909103015F
:1002100080910001981301C02D9A9091090180915D
:100220000001981301C02D9A90910F018091000157
:10023000981301C02D9A90910401809100019813A8
:1002400001C02D9A90910A0180910001981301C07C
:100250002D9A9091100180910001981301C02D9A60
:100260009091050180910001981301C02D9A909101
:100270000B0180910001981301C02D9A90911101FA
:1002800080910001981301C02D9A909106018091F0
:100290000001981301C02D9A90910C0180910001EA
:1002A000981301C02D9A909112018091000198132A
:1002B00001C02D9AFF91EF91BF91AF919F918F91C6
:1002C0006F915F914F913F912F910F900FBE0F90C3
:1002D0001F9018950E94480078941092190110926E
:1002E0001F011092140110921A01109220018FEF39
:1002F0008093150180931B01809321018093160147
:1003000080931C01809322018093170180931D012B
:10031000809323018093180180931E018093240110
:10032000809113018F5F809313018F3F39F08FED20
:100330009EE20197F1F700C00000F2CF8091130117
:10034000815080931301882339F08FED9EE201974D
:10035000F1F700C00000F2CF9FEF23ED80E3915052
:0C03600020408040E1F7E7CFF894FFCF89
:00000001FF
