:100000000C9434000C9446000C9446000C9446006A
:100010000C9446000C9446000C9446000C94460048
:100020000C9446000C9446000C9446000C94460038
:100030000C9446000C9446000C9446000C94460028
:100040000C9463000C9446000C9446000C944600FB
:100050000C9446000C9446000C9446000C94460008
:100060000C9446000C94460011241FBECFEFD8E03C
:10007000DEBFCDBF21E0A0E0B1E001C01D92AA34F7
:10008000B207E1F70E940A020C947A020C94000075
:10009000529A3D9A259A259A259A259A539A3C9ADE
:1000A000259A259A259A259A549A3B9A259A259A13
:1000B000259A259A85B5816085BDEEE6F0E08081C0
:1000C0008160808308951F920F920FB60F921124C2
:1000D0002F933F934F935F936F937F938F939F9350
:1000E000AF93BF93EF93FF93809100019091010133
:1000F0008F3F934009F0A0C08FEF9FEF90930101D5
:100100008093000126E231E042E051E080E090E09F
:10011000FA01E80FF91FD901A80FB91F6D917C9161
:100120007183608302968C30910591F7245F3F4F75
:10013000445F5F4F81E02A34380741F78091020124
:1001400090910301892B09F05A9880910E019091AA
:100150000F01892B09F05B9880911A0190911B0186
:10016000892B09F05C988091040190910501892BFD
:1001700009F045988091100190911101892B09F0A7
:10018000449880911C0190911D01892B09F043989E
:100190008091060190910701892B09F02D9880919B
:1001A000120190911301892B09F02D9880911E0165
:1001B00090911F01892B09F02D9880910801909151
:1001C0000901892B09F02D98809114019091150156
:1001D000892B09F02D988091200190912101892B84
:1001E00009F02D9880910A0190910B01892B09F05B
:1001F0002D988091160190911701892B09F02D9867
:100200008091220190912301892B09F02D988091F2
:100210000C0190910D01892B09F02D988091180106
:1002200090911901892B09F02D98809124019091CA
:100230002501892B09F02D988091000190910101F1
:100240000196909301018093000120910201309169
:1002500003012817390709F45A9A20910E013091A9
:100260000F0180910001909101012817390709F4CD
:100270005B9A20911A0130911B01809100019091AD
:1002800001012817390709F45C9A20910401309183
:10029000050180910001909101012817390709F4A7
:1002A000459A2091100130911101809100019091A7
:1002B00001012817390709F4449A20911C01309153
:1002C0001D0180910001909101012817390709F45F
:1002D000439A20910601309107018091000190918D
:1002E00001012817390709F42D9A20911201309144
:1002F000130180910001909101012817390709F439
:100300002D9A20911E0130911F0180910001909142
:1003100001012817390709F42D9A2091080130911D
:10032000090180910001909101012817390709F412
:100330002D9A209114013091150180910001909126
:1003400001012817390709F42D9A209120013091D5
:10035000210180910001909101012817390709F4CA
:100360002D9A20910A0130910B018091000190910A
:1003700001012817390709F42D9A209116013091AF
:10038000170180910001909101012817390709F4A4
:100390002D9A2091220130912301809100019091AA
:1003A00001012817390709F42D9A20910C01309189
:1003B0000D0180910001909101012817390709F47E
:1003C0002D9A20911801309119018091000190918E
:1003D00001012817390709F42D9A20912401309141
:1003E000250180910001909101012817390709F436
:1003F0002D9AFF91EF91BF91AF919F918F917F9136
:100400006F915F914F913F912F910F900FBE0F9081
:100410001F9018950E944800789410923301109212
:10042000320110923F0110923E0110922901109268
:10043000280110923501109234011092410110925E
:1004400040018FEF93E090932B0180932A019093CA
:10045000370180933601909343018093420190933A
:100460002D0180932C019093390180933801909352
:1004700045018093440190932F0180932E01909326
:100480003B0180933A0190934701809346019093FA
:1004900031018093300190933D0180933C01909312
:1004A000490180934801809126019091270101968E
:1004B00090932701809326018115944028F425E329
:1004C0002A95F1F70000EFCF809126019091270146
:1004D00001979093270180932601029728F085E3E6
:1004E0008A95F1F70000F0CF8FE39CE90197F1F7CF
:0804F00000C0E8CFF894FFCF33
:00000001FF
